:020000040000FA
:100000000C9462000C948A000C948A000C948A0070
:100010000C948A000C948A000C948A000C948A0038
:100020000C948A000C948A000C948A000C948A0028
:100030000C948A000C948A000C948A000C948A0018
:100040000C949C020C948A000C948A000C948A00F4
:100050000C948A000C948A000C948A000C948A00F8
:100060000C948A000C948A000000000023002600F3
:10007000290000000008000201000003040700003E
:1000800000000000000000000000250028002B00F8
:1000900000000000240027002A00040404040404D3
:1000A0000404020202020202030303030303010227
:1000B00004081020408001020408102001020408F6
:1000C0001020C40311241FBECFEFD8E0DEBFCDBF88
:1000D00011E0A0E0B1E0E4EDF7E002C005900D9280
:1000E000A832B107D9F721E0A8E2B1E001C01D9222
:1000F000A934B207E1F710E0C2E6D0E004C02197CE
:10010000FE010E94E203C136D107C9F70E94E60250
:100110000C94E8030C94000090E0FC01E255FF4FC2
:10012000249186569F4FFC018491882399F090E09A
:10013000880F991FFC01E057FF4FA591B491FC0176
:10014000EA57FF4F859194918FB7F894EC91E22B89
:10015000EC938FBF0895AF92BF92CF92DF92EF9250
:10016000FF920F931F93CF93DF936C017B018B0161
:10017000040F151FEB015E01AE18BF08C017D107B1
:1001800059F06991D601ED91FC910190F081E02D3B
:10019000C6010995892B79F7C501DF91CF911F9190
:1001A0000F91FF90EF90DF90CF90BF90AF900895A8
:1001B000833081F028F4813099F08230A9F00895DD
:1001C0008730A9F08830C9F08430B1F48091800084
:1001D0008F7D03C0809180008F7780938000089589
:1001E00084B58F7784BD089584B58F7DFBCF8091D2
:1001F000B0008F778093B00008958091B0008F7D1C
:10020000F9CF1F93CF93DF93282F30E0F901EE58F9
:10021000FF4F8491F901E255FF4FD491F901E65661
:10022000FF4FC491CC23A9F0162F81110E94D80052
:10023000EC2FF0E0EE0FFF1FEA57FF4FA591B491AE
:100240008FB7F894EC91111108C0D095DE23DC93A0
:100250008FBFDF91CF911F910895DE2BF8CF3FB76D
:10026000F89480912D0190912E01A0912F01B091D1
:10027000300126B5A89B05C02F3F19F00196A11D9E
:10028000B11D3FBFBA2FA92F982F8827BC01CD01E0
:10029000620F711D811D911D42E0660F771F881F3F
:1002A000991F4A95D1F70895089590E080E0089548
:1002B000CF93DF93EC0160E08E810E94010161E049
:1002C0008E810E94010160E08E810E9401018BE815
:1002D00091E00197F1F7DF91CF910895CF92DF92EE
:1002E000EF92FF920F931F93CF93DF936C017C01EA
:1002F00087E0E80EF11CD0E0C0E0062F10E0B80166
:100300000C2E02C0759567950A94E2F76170F701AB
:1003100081917F010E9401012196C430D10579F7B6
:10032000C601DF91CF911F910F91FF90EF90DF9069
:10033000CF900C945801CF92DF92EF92FF920F93DF
:100340001F93CF93DF93EC01F62E642F8C810E94D4
:1003500001018D818F3F19F060E00E9401010F2D96
:1003600010E08F8584FF25C06E0187E0C80ED11C88
:10037000F12CE12CB8010E2C02C0759567950A94FA
:10038000E2F76170F60181916F010E940101FFEFB8
:10039000EF1AFF0A88E0E816F10461F7CE01DF9159
:1003A000CF911F910F91FF90EF90DF90CF900C9421
:1003B0005801B80184E0759567958A95E1F7CE01FB
:1003C0000E946E016F2DCE01DF91CF911F910F9191
:1003D000FF90EF90DF90CF900C946E0140E0682F7B
:1003E00081E391E00C949B01CF93DF93823029F459
:1003F0009091400198609093400180934401109245
:10040000450180E48093460180E18093470180E5C7
:1004100080934801809135010E948C0080913601C3
:100420008F3F11F00E948C00809137010E948C0058
:10043000C1E3D1E09E01215331408091400184FD10
:100440000AC084E090E02196281739073CF48E8199
:100450000E948C00EFCF88E090E0F5CF8BE39DE029
:100460000197F1F760E0809135010E94010160E0A1
:10047000809137010E940101809136018F3F19F070
:1004800060E00E9401018091400184FD39C063E079
:1004900081E391E00E946E01CBE4D6E4CE010197A6
:1004A000F1F763E081E391E00E946E012197F1F79B
:1004B00063E081E391E00E946E0183E592E00197A1
:1004C000F1F762E081E391E00E946E0180914001CA
:1004D00080620E94EE0184E0809341018CE00E94E2
:1004E000EE0181E00E94EE018BE39FE10197F1F7BD
:1004F00082E08093420186E0DF91CF910C94EE017F
:1005000080620E94EE018BE496E40197F1F78091FE
:10051000400180620E94EE0183E592E00197F1F7CD
:100520008091400180620E94EE01D0CF41E00E94A4
:100530009B0181E090E008951F920F920FB60F92F9
:1005400011242F933F938F939F93AF93BF938091E9
:10055000290190912A01A0912B01B0912C01309199
:10056000280123E0230F2D3758F50196A11DB11D59
:10057000209328018093290190932A01A0932B01B5
:10058000B0932C0180912D0190912E01A0912F010B
:10059000B09130010196A11DB11D80932D01909362
:1005A0002E01A0932F01B0933001BF91AF919F9185
:1005B0008F913F912F910F900FBE0F901F90189524
:1005C00026E8230F0296A11DB11DD2CF789484B5E1
:1005D000826084BD84B5816084BD85B5826085BD3F
:1005E00085B5816085BD80916E00816080936E00CD
:1005F00010928100809181008260809381008091BF
:10060000810081608093810080918000816080936F
:1006100080008091B10084608093B1008091B0002F
:1006200081608093B00080917A00846080937A002A
:1006300080917A00826080937A0080917A00816054
:1006400080937A0080917A00806880937A0010927B
:10065000C10082E00E94F40186E00E948C0029E73C
:10066000222E20E0322E35EB832E30E0932EC1EA8D
:10067000D0E00BE31FE140E0A42E40E0B42EF101F6
:100680008491F401F490FE01E490EE2009F465C039
:1006900081110E94D800EE2DF0E0EE0FFF1FE85907
:1006A000FF4FA591B4918C91F82209F456C061E0F6
:1006B00086E00E940101E0914401E23008F04BC065
:1006C000E150F0E0EF5CFE4F848980680E94EE010B
:1006D00040E150E06CE071E081E391E00E94AB000A
:1006E00080914101982F9460909341018C600E9409
:1006F000EE010E942F012B013C0188EEC82E83E001
:10070000D82EE12CF12C0E942F016419750986095D
:100710009709683E734081059105A8F3F1E0CF1A6F
:10072000D108E108F10828EE420E23E0521E611CB8
:10073000711CC114D104E104F10429F781E00E9485
:10074000EE01C8010197F1F7A114B10409F497CFA4
:100750000E94000094CFE1E0B4CF60E086E00E9408
:100760000101E0914401E23068F4E150F0E0EF5C17
:10077000FE4F848980680E94EE014AE050E06DE1FE
:1007800071E0AACFE1E0F2CFE1E3F1E0138212825F
:1007900084E091E0918380838DE084838FEF858373
:1007A0008CE086838BE087838AE0808789E081877D
:1007B00088E082871386148615861686178681E060
:1007C0000C94F401EE0FFF1F0590F491E02D0994B5
:1007D000F894FFCF000000009602AB0055015401D1
:1007E000414C434F484F4C204445445543544544A5
:0C07F000004E4F20414C434F484F4C003E
:107E0000112484B714BE81FFF0D085E080938100F7
:107E100082E08093C00088E18093C10086E0809377
:107E2000C20080E18093C4008EE0C9D0259A86E02C
:107E300020E33CEF91E0309385002093840096BBD3
:107E4000B09BFECF1D9AA8958150A9F7CC24DD24C4
:107E500088248394B5E0AB2EA1E19A2EF3E0BF2EE7
:107E6000A2D0813461F49FD0082FAFD0023811F036
:107E7000013811F484E001C083E08DD089C08234E0
:107E800011F484E103C0853419F485E0A6D080C0E4
:107E9000853579F488D0E82EFF2485D0082F10E0AE
:107EA000102F00270E291F29000F111F8ED06801E7
:107EB0006FC0863521F484E090D080E0DECF843638
:107EC00009F040C070D06FD0082F6DD080E0C81688
:107ED00080E7D80618F4F601B7BEE895C0E0D1E017
:107EE00062D089930C17E1F7F0E0CF16F0E7DF06D8
:107EF00018F0F601B7BEE89568D007B600FCFDCFD4
:107F0000A601A0E0B1E02C9130E011968C91119780
:107F100090E0982F8827822B932B1296FA010C0160
:107F200087BEE89511244E5F5F4FF1E0A038BF0790
:107F300051F7F601A7BEE89507B600FCFDCF97BE46
:107F4000E89526C08437B1F42ED02DD0F82E2BD052
:107F50003CD0F601EF2C8F010F5F1F4F84911BD097
:107F6000EA94F801C1F70894C11CD11CFA94CF0C13
:107F7000D11C0EC0853739F428D08EE10CD085E9AC
:107F80000AD08FE07ACF813511F488E018D01DD067
:107F900080E101D065CF982F8091C00085FFFCCF94
:107FA0009093C60008958091C00087FFFCCF809118
:107FB000C00084FD01C0A8958091C6000895E0E648
:107FC000F0E098E1908380830895EDDF803219F02E
:107FD00088E0F5DFFFCF84E1DECF1F93182FE3DFCA
:107FE0001150E9F7F2DF1F91089580E0E8DFEE27F6
:047FF000FF270994CA
:027FFE00040479
:00000001FF
